:100000000C94A4000C9464020C943D020C94CC005B
:100010000C94CC000C94CC000C94CC000C948B026F
:100020000C94CC000C94CC000C94CC000C94CC0020
:100030000C94CC000C94CC000C94CC000C94CC0010
:100040000C941B0A0C94CC000C9445030C941F03D5
:100050000C94CC000C94CC000C94CC000C94CC00F0
:100060000C94CC000C94CC000C94CC000C94CC00E0
:100070000C94CC000C94CC000C94CC000C94CC00D0
:100080000C94CC000C94CC000C94CC000C94CC00C0
:100090000C94CC000C94CC000C94CC000C94CC00B0
:1000A0000C94CC000C94CC000C94CC000C94CC00A0
:1000B0000C94CC00B809BB0990099409BE09BE098B
:1000C0009A099E09A409A809BE09AE09B20902004D
:1000D000000000240027002A002D000A0D0E090050
:1000E00003020000040508000000000000000000FA
:1000F000000000000000000000002300260029008E
:100100002C00010204081020408001020408102085
:100110000102040810204080400102040800000091
:1001200000250028002B002E00040404040404040D
:100130000402020202020203030303030302020396
:1001400005050505BB0DAB0D11241FBECFEFD8E093
:10015000DEBFCDBF11E0A0E0B1E0E4EBFFE102C003
:1001600005900D92AE34B107D9F722E0AEE4B1E0CC
:1001700001C01D92AC35B207E1F710E0C3EAD0E050
:1001800004C02197FE010E94A10EC23AD107C9F70F
:100190000E94650A0C94CD0F0C94000081E08093BE
:1001A000510108950895CF92DF92EF92FF920F933D
:1001B0001F93CF93DF936C017A018B01C0E0D0E0F5
:1001C000CE15DF0581F0D8016D918D01D601ED913D
:1001D000FC910190F081E02DC6010995892B11F069
:1001E0002196EECF7E01C701DF91CF911F910F9134
:1001F000FF90EF90DF90CF900895089580E090E019
:100200000895CF93DF93EB01DC01ED91FC91068023
:10021000F781E02D0995882379F080915401909120
:100220005501C817D90711F0CD2B29F481E0909121
:100230005701911101C080E0DF91CF910895089599
:10024000CF93DF93EC0161E08A810E9473098C8572
:100250008CBD8D858DBDDF91CF910895FC018CB54E
:1002600084878DB58587968587859CBD8DBD60E02B
:1002700082810C9473094F925F926F927F929F924A
:10028000AF92BF92CF92DF92EF92FF920F931F93A4
:10029000CF93DF9300D000D000D0CDB7DEB79E83E0
:1002A0008D836B015A01122FF02E912C2E2D30E0F0
:1002B00040E050E029833A834B835C838FE1E82E52
:1002C000AD81BE81ED91FC9111970280F381E02D0B
:1002D00001E0212FA501B601CD0109950E940F0A69
:1002E0002B013C010E940F0ADC01CB018419950906
:1002F000A609B70929813A814B815C81821793074E
:10030000A407B50740F4B6018D819E810E940101CA
:10031000882341F318C0AD81BE8152969C915297BB
:100320009F3160F453968C915397890F803218F463
:1003300052968C9303C0ED81FE81E28A9394F91466
:1003400008F0BECF80E026960FB6F894DEBF0FBE51
:10035000CDBFDF91CF911F910F91FF90EF90DF9074
:10036000CF90BF90AF909F907F906F905F904F9095
:1003700008954F925F926F927F929F92AF92BF9239
:10038000CF92DF92EF92FF920F931F93CF93DF9361
:1003900000D000D000D0CDB7DEB79E838D836B0137
:1003A0005A01122FF02E912C2E2D30E040E050E01B
:1003B00029833A834B835C83AD81BE81ED91FC91AF
:1003C00011970280F381E02D01E0212FA501B601F4
:1003D000CD0109950E940F0A2B013C010E940F0AD2
:1003E000DC01CB0184199509A609B70929813A8155
:1003F0004B815C8182179307A407B50740F4B601CF
:100400008D819E810E940101882341F304C0939451
:10041000F91490F680E026960FB6F894DEBF0FBE72
:10042000CDBFDF91CF911F910F91FF90EF90DF90A3
:10043000CF90BF90AF909F907F906F905F904F90C4
:1004400008950E94C80F85E791E00E94E00721E02F
:10045000892B09F420E0822F0895AF92BF92CF92AA
:10046000EF920F93A12CB12CC12C0E943E080F914A
:10047000EF90CF90BF90AF9008951F920F920FB65C
:100480000F9211242F933F934F935F936F937F931A
:100490008F939F93AF93BF93EF93FF93E0910201EC
:1004A000F09103010995FF91EF91BF91AF919F9159
:1004B0008F917F916F915F914F913F912F910F900D
:1004C0000FBE0F901F9018951F920F920FB60F92AC
:1004D00011242F933F934F935F936F937F938F9349
:1004E0009F93AF93BF93EF93FF93E0910001F0913F
:1004F00001010995FF91EF91BF91AF919F918F916C
:100500007F916F915F914F913F912F910F900FBE0F
:100510000F901F9018951F920F920FB60F921124F3
:100520002F933F934F935F936F937F938F939F93FB
:10053000AF93BF93EF93FF938091690190916A010C
:10054000A0916B01B0916C01892B8A2B8B2B59F1F7
:1005500090915C01E0915D01F0915E0180818927BD
:1005600080838091690190916A01A0916B01B091A3
:100570006C01181619061A061B060CF04FC0809164
:10058000690190916A01A0916B01B0916C01019792
:10059000A109B1098093690190936A01A0936B014D
:1005A000B0936C013BC080910401EEECF0E0E4916B
:1005B0009FEF90930401E230C1F050F4EE2391F0EC
:1005C000E13049F590916F009D7F90936F0023C0BB
:1005D000E330E1F0E430F9F4909172009D7F909364
:1005E000720019C010926E0016C0909170009D7F2D
:1005F0009093700091E09093B0009091B100987F3B
:1006000094609093B1001092B30005C09091710076
:100610009D7F9093710060E00E947309FF91EF91BC
:10062000BF91AF919F918F917F916F915F914F910A
:100630003F912F910F900FBE0F901F9018951F9212
:100640000F920FB60F9211242F933F934F935F9306
:100650006F937F938F939F93AF93BF93EF93FF938A
:1006600085E791E00E94E908FF91EF91BF91AF917A
:100670009F918F917F916F915F914F913F912F91BA
:100680000F900FBE0F901F9018951F920F920FB6EC
:100690000F9211242F938F939F93EF93FF93E091E9
:1006A0008501F09186018081E0918B01F0918C01B0
:1006B00082FD12C0908180918E018F5F8F73209197
:1006C0008F01821751F0E0918E01F0E0EB58FE4F60
:1006D000958F80938E0101C08081FF91EF919F9152
:1006E0008F912F910F900FBE0F901F9018958EBD78
:1006F00000000DB407FEFDCF8EB508951F93CF9374
:10070000DF9360726093590120915701222371F1A8
:1007100020915901222351F110915601112331F1F9
:10072000EC0180E00E94770390E09195819591091A
:100730009D8B8C8B11501093560128893989211576
:100740003105A1F0821793074CF49A899F3170F418
:100750008B89890F803248F08FE107C0281739074D
:100760002CF48A89882311F081508A8BDF91CF91F4
:100770001F9108950F931F93CF93DF93EC01062FE2
:10078000142FE881F981008CF18DE02D0995802FDF
:1007900080680E947703812F0E947703E881F981A6
:1007A000028CF38DE02DCE01DF91CF911F910F913F
:1007B00009941F93CF93DF93EC01162F611102C0B0
:1007C00045E501C04DE56AE5CE010E94BA0311116D
:1007D00002C040E701C04CE76CE5CE01DF91CF914C
:1007E0001F910C94BA031F93CF93DF93EC01162F44
:1007F000E881F981008CF18DE02D0995812F8F77AB
:100800000E94770380E00E947703182FE881F98126
:10081000028CF38DE02DCE010995812FDF91CF91D0
:100820001F9108954F925F926F927F928F929F9245
:10083000AF92BF92CF92DF92EF92FF920F931F93EE
:10084000CF93DF93EC012B01142F60905401709033
:10085000550180905201909053018091590101E01F
:10086000811101C000E06DE3CE010E94F303482F27
:1008700044606DE3CE010E94BA030E940F0A6B012F
:100880007C01E881F9810190F081E02DCE0109958C
:10089000811115C00E940F0ADC01CB018C199D0942
:1008A000AE09BF09883E9340A105B10540F4E88137
:1008B000F9810680F781E02DCE010995E2CF709293
:1008C0005501609254015401C02EEE24E39400E0DF
:1008D000212FA201B301CE010E943E089092530144
:1008E00080925201DF91CF911F910F91FF90EF9075
:1008F000DF90CF90BF90AF909F908F907F906F9040
:100900005F904F900895CF93DF93EC016987611159
:1009100002C04AE101C04FE063E1CE010E94BA0388
:100920008985882341F061E1CE010E94F3038F7134
:10093000482F406602C04885406861E1CE01DF91E2
:10094000CF910C94BA03CF93DF93209112022330FE
:10095000C9F420915001211115C0EC0164E20E94FC
:10096000F30390E09195819591098C349F4F54F455
:10097000E881F9810488F589E02D61E0CE010995CF
:1009800081E001C080E0DF91CF910895CF93DF93A4
:10099000EC011092560110925501109254011092E0
:1009A0004F0110924E011092500110925701109277
:1009B00053011092520168E20E94F30382FF0AC0C1
:1009C0006DE3CE010E94F303482F44606DE3CE0136
:1009D0000E94BA0340E465E2CE010E94BA03E881B6
:1009E000F9810488F589E02D63E0CE01DF91CF9194
:1009F0000994109259010C94C6044F925F926F9221
:100A00007F928F929F92AF92BF92CF92DF92EF929E
:100A10000F931F93CF93DF93EC014B01142FC090E2
:100A20005401D0905501A0905201B09053016DE354
:100A30000E94F303482F44606DE3CE010E94BA0385
:100A40000E940F0A2B013C01E881F9810190F0819D
:100A5000E02DCE010995811115C00E940F0ADC011D
:100A6000CB0184199509A609B709883E9340A105D1
:100A7000B10540F4E881F9810680F781E02DCE01CF
:100A80000995E2CFD0925501C0925401E881F981D5
:100A90000088F189E02DEE24E39400E0212FA401E9
:100AA000B601CE010995B0925301A0925201DF9197
:100AB000CF911F910F91EF90DF90CF90BF90AF90AB
:100AC0009F908F907F906F905F904F9008954F927E
:100AD0005F926F927F92AF92BF92CF92DF92EF922E
:100AE0000F931F93CF93DF93EC016B015A01122FE9
:100AF0006DE30E94F303482F44606DE3CE010E9432
:100B0000BA030E940F0A2B013C01E881F981019090
:100B1000F081E02DCE010995811115C00E940F0AC8
:100B2000DC01CB0184199509A609B709883E9340D9
:100B3000A105B10540F4E881F9810680F781E02D37
:100B4000CE010995E2CFE881F9810088F189E02D95
:100B5000E12C212FA501B601CE010995DF91CF919E
:100B60001F910F91EF90DF90CF90BF90AF907F904B
:100B70006F905F904F900895CF93DF93EC016032B8
:100B800008F06FE168878985882311F0669568878A
:100B900061E1CE010E94F303807E9885482F492BA6
:100BA00061E1CE01DF91CF910C94BA031F93CF93F3
:100BB000DF9320911202261709F45DC0162FEC0175
:100BC0006230E9F168F4662309F440C0613009F04D
:100BD00052C061E00E94F303837E482F44603BC013
:100BE0006330B9F0643009F046C061E00E94F3035D
:100BF000837E482F4C6061E0CE010E94BA03898554
:100C0000882369F1E881F9810688F789E02D61E0A0
:100C100013C061E00E94F303837E482F406161E0CE
:100C2000CE010E94BA0389858823C9F0E881F98141
:100C30000688F789E02D60E0CE01099510C061E0DB
:100C40000E94F303837E482F486005C061E00E9444
:100C5000F303482F437E61E0CE010E94BA038091E6
:100C60001202811106C067E2CE010E94F30387FFE2
:100C7000F6CF10931202DF91CF911F9108951F9329
:100C8000CF93DF93209112022617A9F0162FEC01C3
:100C90000E94D605143079F488899989892B59F0F6
:100CA000E881F9810484F585E02D6A89CE01DF9120
:100CB000CF911F910994DF91CF911F910895FF92D9
:100CC0000F931F93CF93DF93EC0180915101882301
:100CD00051F110925101809112028330B1F468E217
:100CE000CE010E94F30382FD39C00FC0E881F98173
:100CF000028CF38DE02DCE010995E881F9810488FD
:100D0000F589E02D63E0CE01099564E2CE010E94F1
:100D1000F30390E09195819591099595879590932E
:100D200053018093520180911202833071F48091BB
:100D30005001882389F0E881F9810488F589E02D44
:100D400061E0CE01099581E078C0E881F9810288EF
:100D5000F389E02DCE01099580E06FC0E881F9812B
:100D60000488F589E02D61E0CE010995E881F981DB
:100D7000008CF18DE02DCE01099580E00E94770373
:100D800080E00E947703182F833408F012E4109358
:100D9000500180E00E947703F82E80E00E947703E4
:100DA000082F80E00E947703282F2C7090E4299F61
:100DB000900111242F2930934F0120934E01982F39
:100DC0009370402F50E0592B50935501409354019C
:100DD0009F81E881F981911107C04D815E812417BF
:100DE000350711F0232B11F4133078F410925001D1
:100DF000028CF38DE02DCE010995E881F9810288FE
:100E0000F389E02DCE0109958ECF13501093560132
:100E1000982F9078909357010684F785E02D682FDE
:100E2000CE01099510E080915601181708F05ECFA9
:100E300080E00E9477031F5FF6CFDF91CF911F9173
:100E40000F91FF900895AF92BF92CF92DF92EF92F1
:100E5000FF920F931F93CF93DF93EC016B01B42E9E
:100E6000A52EF22E102FE881F9810488F589E02D56
:100E700061E0099567E2CE010E94F30387FFFACF94
:100E80000F2D0E3308F00DE3E11004C0112321F003
:100E900010E403C010E801C010E08FEFC816D104C1
:100EA00051F048F0C6018827937026E09695879503
:100EB0002A95E1F7182B8D819E818F3F910521F0B6
:100EC00018F088279370192BE881F981008CF18D37
:100ED000E02DCE01099580E80E94770383E0800F22
:100EE0000E9477038C2D0E9477038D810E947703E7
:100EF000812F0E9477031B2DEB2CFA2C8E2D811B4A
:100F0000801730F4F70181917F010E947703F6CFBB
:100F1000E881F981028CF38DE02DCE010995E881FD
:100F2000F9810488F589E02D64E0CE01099568E235
:100F3000CE010E94F30383FFFACFE881F981048890
:100F4000F589E02D61E0CE01DF91CF911F910F91E6
:100F5000FF90EF90DF90CF90BF90AF900994FC018D
:100F6000538D448D252F30E0842F90E0821B930B0E
:100F7000541710F0CF96089501970895FC01918DB4
:100F8000828D981761F0828DDF01A80FB11D5D96EB
:100F90008C91928D9F5F9F73928F90E008958FEF59
:100FA0009FEF0895FC01918D828D981731F0828D0D
:100FB000E80FF11D858D90E008958FEF9FEF089564
:100FC000FC01918D228D892F90E0805C9F4F821BC8
:100FD00091098F739927089580E090E0892B21F083
:100FE0000E94230281110DC080E090E0892B71F0F6
:100FF00080E090E0892B51F00E940000811104C034
:1010000008950E940000F0CF0C9400000895EF9224
:10101000FF920F931F93CF93DF938C01EB0161E05D
:101020000E943F06209719F08881811112C0C0E00C
:101030006DE3C8010E94F3038E7F482F4C2B6DE3B4
:10104000C801DF91CF911F910F91FF90EF900C9409
:10105000BA03C8010E942E018EEB0E9477037E0125
:1010600080E1E80EF11C89910E947703EC16FD06E1
:10107000D1F7C8010E942001C1E0DACF8F929F9280
:10108000AF92BF92CF92DF92EF92FF920F931F9396
:10109000CF93DF93EC014B01F42ED52E122FE88174
:1010A000F9810488F589E02D61E0099567E2CE01B8
:1010B0000E94F30387FFFACFEE2011F08C2D01C0C0
:1010C00080E0180F1E3308F01DE3E881F981008CE1
:1010D000F18DE02DCE01099580E80E94770383E031
:1010E000810F0E947703882D0E9477038D810E94D3
:1010F00077038FEF8816910449F040F0C40126E091
:10110000969587952A95E1F78C7001C080E02D8136
:101110003E812F3F310521F018F022273370832BB9
:10112000EE20A9F0C11002C090E001C090E28068FA
:10113000892B0E947703CC20B1F0C501B7FE03C014
:101140009195819591090E94770311500CC000235D
:1011500041F028893989232B11F490E401C090E6ED
:10116000892B0E9477030F2D8F2C9D2C882D801B9F
:10117000811730F4F40181914F010E947703F6CF7B
:10118000E881F981028CF38DE02DCE010995E8818B
:10119000F9810488F589E02D64E0CE01099568E2C3
:1011A000CE010E94F30383FFFACFE881F98104881E
:1011B000F589E02D61E0CE01DF91CF911F910F9174
:1011C000FF90EF90DF90CF90BF90AF909F908F9067
:1011D0000994FC01848DDF01A80FB11DA35ABF4FF4
:1011E0002C91848D90E001968F739927848FA68926
:1011F000B7892C93A089B1898C9180648C93938D4D
:10120000848D981306C00288F389E02D80818F7D3C
:1012100080830895EF92FF920F931F93CF93DF93F4
:10122000EC0181E0888F9B8D8C8D981305C0E88937
:10123000F989808185FD24C0F62E0B8D10E00F5FAB
:101240001F4F0F731127E02E8C8DE8120CC00FB6C4
:1012500007FCFACFE889F989808185FFF5CFCE01B7
:101260000E94E908F1CF8B8DFE01E80FF11DE35AD2
:10127000FF4FF0820B8FEA89FB898081806207C073
:10128000EE89FF896083E889F989808180648083A1
:1012900081E090E0DF91CF911F910F91FF90EF904F
:1012A0000895CF93DF93EC01888D8823C9F0EA89F4
:1012B000FB89808185FD05C0A889B9898C9186FD4F
:1012C0000FC00FB607FCF5CF808185FFF2CFA8894C
:1012D000B9898C9185FFEDCFCE010E94E908E7CF57
:1012E000DF91CF910895362F90E0FC01E552FF4F3A
:1012F0004491FC01EE5FFE4F2491FC01E75DFE4F3F
:101300008491882309F44EC04423C1F150E0FA01CE
:101310003297ED30F10590F5E65AFF4F0C94A10E8F
:10132000909180009F7703C0909180009F7D909363
:10133000800024C09091B0009F7703C09091B000CE
:101340009F7D9093B0001AC0909190009F7703C04A
:10135000909190009F7D9093900010C09091A0007C
:101360009F7703C09091A0009F7D9093A00006C03E
:1013700094B59F7702C094B59F7D94BDE82FF0E0AF
:10138000EE0FFF1FE35EFE4FA591B4919FB7F89457
:10139000311104C08C912095282302C0EC912E2B92
:1013A0002C939FBF0895CF93DF9390E0FC01EE5FF5
:1013B000FE4F2491FC01E75DFE4F8491882361F18B
:1013C00090E0880F991FFC01E153FF4FC591D49124
:1013D000FC01E35EFE4FA591B491611109C09FB776
:1013E000F8948881209582238883EC912E230BC06A
:1013F000623061F49FB7F8948881322F309583234F
:101400008883EC912E2B2C939FBF06C08FB7F89446
:10141000E8812E2B28838FBFDF91CF9108952FB7BE
:10142000F894609146027091470280914802909131
:1014300049022FBF08951F920F920FB60F921124E9
:101440002F933F938F939F93AF93BF9380914602C7
:1014500090914702A0914802B09149023091450213
:1014600023E0230F2D3720F40196A11DB11D05C0E7
:1014700026E8230F0296A11DB11D209345028093FB
:10148000460290934702A0934802B093490280918C
:10149000410290914202A0914302B0914402019610
:1014A000A11DB11D8093410290934202A09343027B
:1014B000B0934402BF91AF919F918F913F912F9133
:1014C0000F900FBE0F901F901895CF93DF93CDB75D
:1014D000DEB7AE970FB6F894DEBF0FBECDBF7894DF
:1014E00084B5836084BD85B5836085BD80916E00C1
:1014F000816080936E0082E0809381008091810002
:101500008160809381008091800081608093800061
:101510008091B10084608093B1008091B0008160BF
:101520008093B000809191008360809391008091BE
:1015300090008160809390008091A10083608093EF
:10154000A1008091A00081608093A00087E8809333
:101550007A001092C1008091190290911A0297FDB1
:1015600008C061E00E94D30960E0809119020E94E6
:10157000730981E08093140210923B0210923A02A8
:1015800010923F0210923E02109259019FE19093F7
:101590003C0280933D0280912D02823021F0833005
:1015A00021F08FEF03C080E001C081E080932E0224
:1015B0009EE28E010F5F1F4FF801892F11928A95CD
:1015C000E9F781E0898384E08A8332E03B8323E08A
:1015D0002D833E838F8380E4888735E039872A878F
:1015E00026E02B8723E32C8737E03D8728E02F87F1
:1015F00029E0298B29E12B8B22E42C8B45E24D8BB2
:101600008E8B46E24F8B388F38E2398F30E13A8F3C
:1016100039E23B8F3CED3C8F9D8F98E89E8F9FE297
:101620009F8F9DE298A390E399A337E33BA330E912
:101630003CA338E33DA32EA32CE32FA32FE828A738
:101640002DE329A722E12AA72FE62BA79CA79FEF2E
:101650009DA79CE69E87888B84E68AA361E08091A3
:101660002C020E94730961E080912C020E94D30930
:101670008091340290913502892B31F489E292E015
:101680009093350280933402FFB6F894809158010C
:10169000811127C0E3E3F1E08491ECE0F1E0949163
:1016A000E82FF0E0EE0FFF1FE153FF4FA591B4913B
:1016B000EC91E92321F461E08AE00E94730961E082
:1016C0008AE00E94D3098CB580618CBD8CB58064A2
:1016D0008CBD61E08DE00E94D30961E08BE00E9447
:1016E000D309809158018F5F80935801FFBE80E538
:1016F0008093380281E0809339020E940F0A6B01C7
:101700007C014AEA6FE28AE292E00E94BA036FE249
:101710008AE292E00E94F3038A3A61F00E940F0A83
:10172000DC01CB018C199D09AE09BF09C297A10547
:10173000B10538F30E940F0A6B017C0145E56FE2A9
:101740008AE292E00E94BA036FE28AE292E00E948B
:10175000F303853561F00E940F0ADC01CB018C197F
:101760009D09AE09BF09C297A105B10538F3F12C57
:10177000F801EF0DF11DEF0DF11D60816F3F39F0A4
:1017800041818AE292E00E94BA03F394F1CF60E0D3
:1017900070E08AE292E00E940708609133028AE2D8
:1017A00092E00E94830461E08AE292E00E943F0698
:1017B0000E940F0A6B017C0167E28AE292E00E94BC
:1017C000F30387FD0CC00E940F0ADC01CB018C19CA
:1017D0009D09AE09BF09C297A105B10568F30E9432
:1017E0000F0ADC01CB018C199D09AE09BF09C29714
:1017F000A105B10518F580912E028230C8F4E82FBA
:10180000F0E0EE0FFF1FE050FF4F2EEC30E0318391
:101810002083813039F08091690083608093690072
:10182000E89A06C0809169008C6080936900E99A0B
:1018300085E193E09093300280932F026DE371E095
:101840008AE292E00E94070886EA9FEF90933B02AB
:1018500080933A0262E080E00E94D30962E084E073
:101860000E94D30980910401833021F08F3F09F059
:101870006FC104C0EEECF0E01491C2C083E080932D
:101880000401EEECF0E0E491EF3F09F461C1E230D5
:1018900009F46DC040F5EE2309F44DC0E13009F0C4
:1018A000AEC010928000109281008091810088600B
:1018B0008093810080918100816080938100ECE2BF
:1018C000F1E0E491F0E0EE0FFF1FE35EFE4F859143
:1018D0009491E5E0F1E0E491E0935F0161E083E061
:1018E0000E94D309BAC0E33009F467C0E43009F0BC
:1018F00086C01092A0001092A1008091A100886083
:101900008093A1008091A10081608093A100ECE20E
:10191000F1E0E491F0E0EE0FFF1FE35EFE4F8591F2
:101920009491E5E0F1E0E491E0935A0161E083E015
:101930000E94D309BBC014BC15BC84B5826084BDB1
:1019400085B5816085BDECE2F1E0E491F0E0EE0F59
:10195000FF1FE35EFE4F85919491E5E0F1E0E49195
:10196000E093600161E083E00E94D30954C01092CB
:10197000B0001092B1008091B00082608093B000FE
:101980008091B10081608093B100ECE2F1E0E491DC
:10199000F0E0EE0FFF1FE35EFE4F85919491909370
:1019A0005E0180935D01E5E0F1E0E491E0935C018C
:1019B00061E083E00E94D30946C01092900010922B
:1019C00091008091910088608093910080919100B6
:1019D000816080939100ECE2F1E0E491F0E0EE0FA1
:1019E000FF1FE35EFE4F85919491E5E0F1E0E49105
:1019F000E0935B0161E083E00E94D3094EC01E2F9B
:101A000017FDA6C061E083E00E94D309112319F0FD
:101A1000123009F518C085B5887F836085BD8CE7D5
:101A200087BD88EC90E0A0E0B0E0809371019093D6
:101A30007201A0937301B093740180916E00826073
:101A400080936E0085C08091B100887F8360809311
:101A5000B10089EF3AC01130F1F480918100887FA4
:101A60008160809381008FE39FE190938900809350
:101A7000880088EC90E0A0E0B0E080936D01909346
:101A80006E01A0936F01B093700180916F0082602E
:101A900080936F005DC0133039F480919100887F8E
:101AA00081608093910025C0143039F48091A100A9
:101AB000887F81608093A10034C01330D1F014304E
:101AC00081F1123009F044C08FE38093B30088ECB9
:101AD00090E0A0E0B0E08093690190936A01A09348
:101AE0006B01B0936C0180917000826080937000F4
:101AF0002FC08FE39FE1909399008093980088EC2A
:101B000090E0A0E0B0E08093650190936601A0931F
:101B10006701B093680180917100826080937100C9
:101B200017C08FE39FE19093A9008093A80088ECF1
:101B300090E0A0E0B0E08093610190936201A093F7
:101B40006301B0936401809172008260809372009F
:101B50000E94EC07FDCF80911C0290911D020E9413
:101B60003F0F8091190290911A0297FD03C060E027
:101B70000C94D3090895109278011092770188EEA1
:101B800093E0A0E0B0E08093790190937A01A09374
:101B90007B01B0937C018FE091E09093760180937C
:101BA000750185EC90E0909382018093810184EC33
:101BB00090E0909384018093830180EC90E0909377
:101BC00086018093850181EC90E090938801809359
:101BD000870182EC90E090938A018093890186ECE2
:101BE00090E090938C0180938B0110928E01109263
:101BF0008F01109290011092910180E5809338023C
:101C00001092390281E080932C0294E090932D028F
:101C100080931202109231029FE19093320210924F
:101C2000330229E232E0309335022093340221E27C
:101C300031E030932B0220932A021092140210926A
:101C40001B02109222021092230210922402109280
:101C500025028093210280931E0210921F0292E0BF
:101C6000909320028093130283E090E090931802F7
:101C7000809317020E94A70E90931D0280931C026E
:101C8000009761F023E0FC0111922A95E9F781E0C9
:101C900090E0909316028093150208C010921802EB
:101CA00010921702109216021092150281E090E035
:101CB00090931A028093190280911402882341F0B4
:101CC00061E081E00E94D30960E081E00E94730935
:101CD000EAE2F1E0E491F0E0EE0FFF1FE35EFE4F79
:101CE000859194919093270280932602E3E0F1E09E
:101CF000E491E093280260E080E00E94D309E2E0F2
:101D0000F1E0E491E0934A02E9E2F1E0E491F0E0ED
:101D1000EE0FFF1FEA50FF4F8591949190934C0274
:101D200080934B0210925502109257021092560265
:101D3000E5E5F2E08DE492E012928E179F07E1F75D
:101D40000895EE0FFF1F0590F491E02D09940F9375
:101D50001F93CF93DF938230910510F482E090E0DF
:101D6000E0915A02F0915B0220E030E0A0E0B0E0A8
:101D7000309719F140815181028113814817590729
:101D8000C8F08417950769F4109731F012960C93F8
:101D9000129713961C9327C000935A0210935B026C
:101DA00022C02115310519F04217530718F49A0182
:101DB000BD01EF01DF01F801DBCF21153105F9F09D
:101DC000281B390B2430310580F48A819B816115F1
:101DD000710521F0FB019383828304C090935B0221
:101DE00080935A02FE01329644C0FE01E20FF31FB7
:101DF0008193919322503109398328833AC02091ED
:101E0000580230915902232B41F42091070130915F
:101E10000801309359022093580220910501309116
:101E200006012115310541F42DB73EB74091090156
:101E300050910A01241B350BE0915802F091590290
:101E4000E217F307A0F42E1B3F0B2817390778F091
:101E5000AC014E5F5F4F2417350748F04E0F5F1FF0
:101E600050935902409358028193919302C0E0E04D
:101E7000F0E0CF01DF91CF911F910F910895CF93A3
:101E8000DF93009709F481C0FC013297138212821C
:101E9000A0915A02B0915B02109781F420813181A8
:101EA000820F931F20915802309159022817390749
:101EB00051F5F0935902E093580267C0ED0120E01C
:101EC00030E0CE17DF0740F44A815B819E01411567
:101ED0005105F1F0EA01F5CFD383C28340815181EE
:101EE000840F951FC817D90759F488819981840FE9
:101EF000951F0296918380838A819B81938382833D
:101F00002115310529F4F0935B02E0935A023DC09C
:101F1000E901FB83EA8349915991C40FD51FEC175E
:101F2000FD0761F480819181840F951F0296E9017C
:101F300099838883828193819B838A83E0E0F0E0A8
:101F400012968D919C911397009719F0FD01DC0179
:101F5000F7CF8D919C9111979D012E5F3F4F820F7E
:101F6000931F20915802309159022817390769F4BC
:101F7000309729F410925B0210925A0202C0138229
:101F80001282B0935902A0935802DF91CF91089525
:101F900081E090E0F8940C94CD0F10E0C3EAD0E01B
:101FA00004C0FE010E94A10E2196C43AD107C9F7D0
:041FB000F894FFCFD3
:101FB400D2000000FF00005C022000000000000AC4
:101FC40009D300AF075109E007BE07D2070000009C
:101FD40000A30467053B015F0612048304BC057E6D
:101FE400032D02F9043F06D9032E01200173616D0C
:0E1FF400706C65456E63727970744B65790090
:00000001FF
